:100000000C9449000C94CD020C94D7020C94E1029C
:100010000C94EB020C94F5020C94FF020C9409036F
:100020000C9413030C9468000C9468000C94680002
:100030000C9468000C9468000C9468000C948F0376
:100040000C94BC020C9468000C9468000C9468003A
:100050000C9468000C941D030C9468000C946800C8
:100060000C9468000C9468000C9468000C94680070
:100070000C9468000C9468000C9468000C94680060
:100080000C9468000C9468000C94680000081C181C
:10009000141011241FBECFEFD0E1DEBFCDBF11E0A1
:1000A000A0E0B1E0E4ECF1E100E00BBF02C007909A
:1000B0000D92A430B107D9F711E0A4E0B1E001C07E
:1000C0001D92AD35B107E1F70E94E9070C94E108F4
:1000D0000C9400008FB7F894992708958FBF089566
:1000E000982F969596959695EEE2F1E0E90FF11D21
:1000F000877021E030E002C0220F331F8A95E2F7BB
:100100008081822399270895282F9FB7F894E82F9C
:10011000FF27E75EFE4F80818F3F81F4E0915C0115
:10012000E21771F40BC02093580104C0FF27E75E6B
:10013000FE4F208320935C0120E007C025E005C02E
:10014000809158018F3F91F7EECF892F99278FBF6C
:10015000822F992708959FB7F894292F3327422F8C
:1001600090910001981741F480910501833021F4AA
:100170002FBF81E090E008954FBF80E090E00895A8
:10018000982F969596959695E8E1F1E0E90FF11D87
:10019000877021E030E002C0220F331F8A95E2F71A
:1001A00080818223992708957FB7F89462B72091C0
:1001B000100130911101409112015091130106B6C6
:1001C00001FE0FC081B792B7280F311D411D511D8F
:1001D0002F5F3F4F4F4F5F4F290F311D411D511D65
:1001E00004C0260F311D411D511D872F99278FBF38
:1001F000CA01B9010895EF920F931F93AE2D99E0B4
:10020000899FF0011124EF5CFE4F4083518362838C
:1002100073830483158326833783A17080858E7F43
:100220008A2B8260808781E00E9484001F910F9159
:10023000EF900895AF92BF92CF92DF92EF92FF922C
:100240000F931F93F82E5A016B010E94D400AB014B
:10025000BC0181E0E82E960185018F2D0E94FB00F4
:100260001F910F91FF90EF90DF90CF90BF90AF90D4
:10027000089580915B01882319F02FE170E002C09E
:1002800078E021E0622FEFB7F894809128018E7F0B
:100290008093280187B1982F9F71829586958695C6
:1002A000837019F080E090E012C0822F8850863170
:1002B00018F081E090E00BC040E050E03327892F38
:1002C00099272817390711F441E050E0CA01982F07
:1002D0009170990F809128018178262F2F71422FDC
:1002E000440F440F892B842B80932801332727B98F
:1002F000783059F58091590190915A0121E0863862
:10030000920718F087E090E01FC0833C910518F039
:1003100086E090E019C08136910518F085E090E004
:1003200013C08033910518F084E090E00DC088314F
:10033000910518F083E090E007C00C9718F082E078
:1003400090E002C080E090E0782F7770887D872B66
:10035000886D992786B98E2F99278FBF0895982F7A
:10036000969596959695E0E3F1E0E90FF11D87707B
:1003700021E030E002C0220F331F8A95E2F780812E
:100380008223992708950F931F93CF93DF93182FFC
:100390008FB7F894282F3327022F809105018823E7
:1003A00031F581E080930501109352012FBF8FB783
:1003B000F894C82FDD279C2F809100018230A9F48A
:1003C00080910501813021F482E00E94840009C0FF
:1003D000823059F4809152018093000183E0809330
:1003E0000501CFBF80E090E025C09FBFFBCF80918B
:1003F0005201811711F42FBFF5CF812F0E94AF0159
:10040000882319F085E090E014C0E12FE695E69589
:10041000E695FF27E05DFE4F177081E090E002C097
:10042000880F991F1A95E2F72081282B208380E0FE
:1004300090E00FBFDF91CF911F910F910895DF9250
:10044000EF92FF920F931F938FB7F894282F3327C3
:10045000D22E91B782B746B7981711F041FF02C06C
:100460002FBF6AC080912D018823E1F10E94D40042
:10047000E0904E01F0904F01009150011091510118
:1004800020911401309115014091160150911701EE
:100490006E197F09800B910B62177307840795070C
:1004A00020F010922D0171E01EC02E0D3F1D401F47
:1004B000511F8091100190911101A0911201B091F2
:1004C0001301281B390B4A0B5B0B273E31054105F5
:1004D000510540F4822F223010F070E005C070E02A
:1004E00082E002C070E086EE682F615000B601FC29
:1004F000FDCF82B7681709F46F5F2091100130912A
:1005000011014091120150911301DA01C9010196C4
:10051000A11DB11D860F911DA11DB11D821793074D
:10052000A407B50710F4622F609561BFDFBE772383
:1005300019F080E00E9484001F910F91FF90EF90CE
:10054000DF900895AFB7F894BB27E1E0E0932D0169
:1005500060934E0170934F0180935001909351012D
:100560002093140130931501409316015093170105
:10057000AFBF0E941F0208951F920F920FB60F92F5
:1005800011248F9383B783BF00B600FCFDCF8F91FA
:100590000F900FBE0F901F9018951F920F920FB6DD
:1005A0000F9211240F900FBE0F901F9018951F925D
:1005B0000F920FB60F9211240F900FBE0F901F9045
:1005C00018951F920F920FB60F9211240F900FBE25
:1005D0000F901F9018951F920F920FB60F92112433
:1005E0000F900FBE0F901F9018951F920F920FB68D
:1005F0000F9211240F900FBE0F901F9018951F920D
:100600000F920FB60F9211240F900FBE0F901F90F4
:1006100018951F920F920FB60F9211240F900FBED4
:100620000F901F9018951F920F920FB60F921124E2
:100630000F900FBE0F901F9018951F920F920FB63C
:100640000F9211242F933F934F935F936F937F9358
:100650008F939F93AF93BF93EF93FF9344B155B1A3
:1006600078948FB7F894992720912801322F3695E6
:10067000317021708FBF2223D9F4339880912C01DF
:10068000813021F0823009F039C00AC0332351F0A3
:1006900050934D0140934C018CE00E9484002EC089
:1006A000332319F40E94390129C010922C0126C06D
:1006B0008FB7F89499278FBF2FB7F894332786B157
:1006C000582F5770482F4072987D942B952B80742B
:1006D000977B982B90619F77892F992786B9887D82
:1006E000842B852B87738061992786B9887D842B1D
:1006F000852B877B8069992786B92FBFFF91EF9162
:10070000BF91AF919F918F917F916F915F914F9129
:100710003F912F910F900FBE0F901F9018951F9231
:100720000F920FB60F9211242F933F934F935F9325
:100730006F937F938F939F93AF93BF93EF93FF93A9
:1007400083B783BF00B600FCFDCF81B79927019620
:10075000AA27BB272091100130911101409112016D
:1007600050911301280F391F4A1F5B1F209310015E
:1007700030931101409312015093130178940E9419
:100780001F02FF91EF91BF91AF919F918F917F9148
:100790006F915F914F913F912F910F900FBE0F90EE
:1007A0001F901895EF92FF920F931F93CF93DF93B3
:1007B000982F8FB7F894E82E80910501833009F0C7
:1007C00045C080910001891709F040C08091300137
:1007D000882309F045C03EC0EF2DE695E695E695E5
:1007E000FF274F2D5527E05DFE4F9A01277030708F
:1007F00081E090E002C0880F991F2A95E2F780956A
:10080000208128232083C093040111C02196C23087
:10081000D10511F4C0E0D0E0FC2E8C2F0E94AF0176
:100820008823D1F6C017D10789F74FEF50E04093E6
:1008300052018FEF8093000181E08093050182E0F7
:100840000E948400EFBE80E090E010C0EFBE81E027
:1008500090E00CC082E08093000110920501F2CF7D
:1008600080910401082F1127E801D0CFDF91CF91AB
:100870001F910F91FF90EF900895AF92BF92CF928A
:10088000DF92EF92FF920F931F93CF93DF935B0161
:100890006C01C0E0D0E0E1E3F1E0608561FFD6C02B
:1008A0002081318142815381E480F5800681178166
:1008B000D601C501821B930BA40BB50B8E159F05AA
:1008C000A007B10708F4C2C060FF03C06D7F608756
:1008D00008C02E0D3F1D401F511F208331834283CE
:1008E0005383C13081F1C13020F0C23009F0B4C06F
:1008F000ABC08FB7F894082F112780910701882388
:1009000089F491E09093070110922A010FBF809122
:100910000A01882321F485E00E9484009DC0909301
:100920000B019AC080912A01882309F47FC080E0DE
:100930000E94C000882309F079C08091180181606D
:100940008093180173C080E00E94AB00882309F4F3
:100950003AC09FB7F89420910701222319F421E0AF
:1009600030E00FC080910101813019F020E030E0CB
:1009700008C040E050E02150223010F441E050E047
:100980009A01892F99278FBF2223E9F08FB7F89416
:10099000082F1127902F80910101813099F48091C7
:1009A0000701813021F483E00E94840009C0823075
:1009B00049F480912A018093010183E0809307012B
:1009C0000FBF01C09FBF81E00E94AB00882309F4E4
:1009D00043C09FB7F89420910801222319F421E025
:1009E00030E00FC080910901882319F020E030E049
:1009F00008C040E050E02150223010F441E050E0C7
:100A00009A01892F99278FBF222331F18FB7F8944C
:100A1000082F1127902F80910901882399F4809144
:100A20000801813029F484E00E9484000FBF14C0C3
:100A3000823041F4809126018093090183E0809304
:100A40000801F4CF9FBF08C0AA9806C02196399626
:100A5000C330D10509F021CF81E00E948400DF91ED
:100A6000CF911F910F91FF90EF90DF90CF90BF90AB
:100A7000AF900895AF92BF92CF92DF92EF92FF9224
:100A80000F931F93CF93DF93863009F430C18730E3
:100A900090F4823009F4B0C0833030F4882309F137
:100AA000813009F06EC250C0843009F413C1853022
:100AB00008F01BC1C1C0893009F427C18A3038F45D
:100AC000873009F418C1883009F05BC218C18B3037
:100AD00009F43FC18B3008F42AC18C3009F051C2AF
:100AE00050C180912701882361F5209154013091F4
:100AF00055014091560150915701EFB7F894FF27E7
:100B000060914E0170914F0180915001909151017F
:100B1000E0901401F0901501009116011091170159
:100B20006E0D7F1D801F911FEFBF209354013093E6
:100B300055014093560150935701109227010E948E
:100B4000A2020E94D40043C00E94D4005B016C0149
:100B50008FB7F894992710922D018FBF9FEFE92E40
:100B60009FEFF92E9FEF092F9FE7192F60E0E1E338
:100B7000F1E0808581FF1CC080819181A281B381D9
:100B8000A6019501281B390B4A0B5B0BDA01C90141
:100B90002481358146815781281B390B4A0B5B0B19
:100BA0002E153F05400751071CF479018A0161E0C9
:100BB000399631E0EC34F307E1F6662309F4E1C13C
:100BC0001E141F04100611062CF0C601B5010E9468
:100BD0003D04D7C1E0925401F092550100935601B3
:100BE0001093570181E080932701A8019701C60166
:100BF000B5010E94A202C5C18FB7F8949927209130
:100C000052012093000123E0209305018FBF8091C2
:100C10000001882321F0813009F0B3C103C0159A87
:100C20001D9A02C0169A1E9A4AE050E060E070E0F9
:100C300081E00E941A01A5C12FB7F8943327809153
:100C40002A018093010143E0409307012FBF809167
:100C50000101809353018FB7F894082F11278091D9
:100C60000F01882341F581E080930F0110922F013D
:100C70000FBF8FB7F8949927379A8FBF8FB7F89423
:100C8000082F1127902F80910201813091F48091DB
:100C90000F01813021F48BE00E94840008C0823073
:100CA00041F480912F018093020140930F010FBF07
:100CB00068C19FBF66C180912F018823C1F380E086
:100CC0000E947000882399F780912E0181608093A3
:100CD0002E01EDCF8FB7F89499272091260120930C
:100CE000090123E02093080132C080E005C01D986F
:100CF000159889E007C081E00E94C30142C11E9897
:100D000016988AE00E9484003CC180E00E94D203D1
:100D100080910B01813019F480E00E94C3018FB7EC
:100D2000F894992710920B0110920A0110C081E0EB
:100D30000E94D20380910D01813011F40E94C30101
:100D40008FB7F894992710920D0110920C018FBF64
:100D500018C12FB7F894332780912F018093020197
:100D600083E080930F012FBF80910201882309F057
:100D700008C181E080932C0110925B010E9439012F
:100D800000C110922C01C0914C01D0914D01809175
:100D90005B01882309F0F5C08FB7F894C82E8091C5
:100DA0000F01833009F041C0809102018823E9F5E9
:100DB00080912E01882309F0CFC0C7C0ED2DE695A4
:100DC000E695E695FF274D2D5527E25DFE4F9A01EA
:100DD0002770307081E090E002C0880F991F2A953B
:100DE000E2F7809520812823208300930E0112C012
:100DF0000F5F1F4F0130110511F400E010E0D02EFD
:100E0000802F0E9470008823C9F60E151F0581F7F8
:100E10004FEF50E040932F018FEF8093020181E06C
:100E200080930F018BE00E948400CFBE80E00E947F
:100E3000AB00882309F485C0B09053018FB7F894B4
:100E4000C82E80910701833009F041C080910101D3
:100E50008B15E9F580911801882309F08CC082C0B8
:100E6000ED2DE695E695E695FF274D2D5527E85E95
:100E7000FE4F9A012770307081E090E002C0880F29
:100E8000991F2A95E2F780952081282320830093DB
:100E9000060112C00F5F1F4F0130110511F400E071
:100EA00010E0D02E802F0E94C0008823C9F60E15B6
:100EB0001F0581F74FEF50E040932A018FEF809399
:100EC000010181E08093070183E00E948400CFBE8E
:100ED000BB20B9F5C855D240A0F580914B0181FFE8
:100EE00027C0E0904701F09048010091490110911E
:100EF0004A010E94D4009B01AC0180914301909172
:100F00004401A0914501B0914601281B390B4A0BC1
:100F10005B0B2E153F054007510750F4E21AF30A08
:100F2000040B150B55E6E516F1040105110548F40F
:100F300044E650E060E070E082E00E941A01A29A6C
:100F4000AA9A81E00E94AB001CC081E0809302015C
:100F500010920F01379869CF80910E01E82EFF247F
:100F6000870146CF81E080930101109207018093B1
:100F70000A0186E0AACF80910601E82EFF248701AE
:100F800089CFDF91CF911F910F91FF90EF90DF906C
:100F9000CF90BF90AF900895809158018F3FB1F0EE
:100FA000282F3327F901E75EFE4F80818093580197
:100FB0008F3F11F480935C018FEF80832F3F31F0DE
:100FC000822F0E943A0581E090E0089580E090E051
:100FD0000895EF920F931F931FB7F8944DE050E0E0
:100FE0006FEF70E089E191E00E94DA088FEF809363
:100FF000580180935C0181E08EBD88E080BF83E072
:1010000083BF8CB59DB54AE72CB53DB52817390788
:1010100008F44150442311F0C901F6CF92B782B7CA
:101020008917E9F32CB53DB592B782B78917E9F373
:101030008CB59DB5821B930B409625E096958795C0
:101040002A95E1F790935A018093590113BE83B713
:101050008EBD8EB580BF12BE1DBC1CBC8FEF86BF7F
:1010600086B780937C0080B7992787709070892B12
:10107000D1F7D29AD19AD09ADA9AD99AD89A15BA3F
:101080008FEF84BBD498DC9816B80E94CC078823D5
:10109000E1F710922E01109218011092300180B7E2
:1010A000886080BF8BE083BF86EE81BF87B7826098
:1010B00087BF0E941F020E94CC078823E1F7812F7F
:1010C00099278FBF78940E94D400AB01BC01EE2415
:1010D00004E610E020E030E080E00E94FB008FB7E3
:1010E000F894482F55274BC087B799278370907085
:1010F000892B19F4E5E0F0E013C080B799278770D9
:101100009070892BD1F781B792B7891B8C3030F062
:1011100082B7853F18F4E3E0F0E002C0E2E0F0E0DF
:1011200087B7887BC1F480917D008B7FA1F46E9995
:1011300012C08AB190919A00892B887161F48091D4
:10114000740082FD08C0379B03C081E090E005C0B9
:1011500085E090E002C080E090E025B78E1708F4AB
:10116000E82FFF27E457FF4FE491237E2062E22B14
:10117000E5BF78948895F89485B78F7D85BF809179
:1011800058018F3F09F4B0CF282F3327F901E75ECC
:10119000FE4F8081809358018F3F11F480935C0152
:1011A0008FEF80832F3F09F49FCF4FBF822F0E9484
:1011B0003A0595CFDC0101C06D9341505040E0F7F6
:0411C0000895FFCFC0
:0411C4000201010023
:00000001FF
